{
  "contractName": "CreoLPFarm",
  "abi": [
    {
      "inputs": [
        {
          "internalType": "contract IBEP20",
          "name": "_creoToken",
          "type": "address"
        },
        {
          "internalType": "contract IUniswapV2Router02",
          "name": "_swap",
          "type": "address"
        }
      ],
      "stateMutability": "nonpayable",
      "type": "constructor"
    },
    {
      "anonymous": false,
      "inputs": [
        {
          "indexed": true,
          "internalType": "address",
          "name": "previousOwner",
          "type": "address"
        },
        {
          "indexed": true,
          "internalType": "address",
          "name": "newOwner",
          "type": "address"
        }
      ],
      "name": "OwnershipTransferred",
      "type": "event"
    },
    {
      "anonymous": false,
      "inputs": [
        {
          "indexed": true,
          "internalType": "address",
          "name": "from",
          "type": "address"
        },
        {
          "indexed": false,
          "internalType": "uint256",
          "name": "amount",
          "type": "uint256"
        }
      ],
      "name": "Stake",
      "type": "event"
    },
    {
      "anonymous": false,
      "inputs": [
        {
          "indexed": true,
          "internalType": "address",
          "name": "user",
          "type": "address"
        },
        {
          "indexed": false,
          "internalType": "uint256",
          "name": "amount",
          "type": "uint256"
        }
      ],
      "name": "SwapTokenForLP",
      "type": "event"
    },
    {
      "anonymous": false,
      "inputs": [
        {
          "indexed": true,
          "internalType": "address",
          "name": "from",
          "type": "address"
        },
        {
          "indexed": false,
          "internalType": "uint256",
          "name": "amount",
          "type": "uint256"
        }
      ],
      "name": "Unstake",
      "type": "event"
    },
    {
      "anonymous": false,
      "inputs": [
        {
          "indexed": true,
          "internalType": "address",
          "name": "to",
          "type": "address"
        },
        {
          "indexed": false,
          "internalType": "uint256",
          "name": "amount",
          "type": "uint256"
        }
      ],
      "name": "YieldWithdraw",
      "type": "event"
    },
    {
      "inputs": [],
      "name": "APR",
      "outputs": [
        {
          "internalType": "uint256",
          "name": "",
          "type": "uint256"
        }
      ],
      "stateMutability": "view",
      "type": "function",
      "constant": true
    },
    {
      "inputs": [],
      "name": "claimedRewards",
      "outputs": [
        {
          "internalType": "uint256",
          "name": "",
          "type": "uint256"
        }
      ],
      "stateMutability": "view",
      "type": "function",
      "constant": true
    },
    {
      "inputs": [],
      "name": "creoToken",
      "outputs": [
        {
          "internalType": "contract IBEP20",
          "name": "",
          "type": "address"
        }
      ],
      "stateMutability": "view",
      "type": "function",
      "constant": true
    },
    {
      "inputs": [],
      "name": "farmActive",
      "outputs": [
        {
          "internalType": "bool",
          "name": "",
          "type": "bool"
        }
      ],
      "stateMutability": "view",
      "type": "function",
      "constant": true
    },
    {
      "inputs": [
        {
          "internalType": "address",
          "name": "",
          "type": "address"
        }
      ],
      "name": "isStaking",
      "outputs": [
        {
          "internalType": "bool",
          "name": "",
          "type": "bool"
        }
      ],
      "stateMutability": "view",
      "type": "function",
      "constant": true
    },
    {
      "inputs": [],
      "name": "name",
      "outputs": [
        {
          "internalType": "string",
          "name": "",
          "type": "string"
        }
      ],
      "stateMutability": "view",
      "type": "function",
      "constant": true
    },
    {
      "inputs": [],
      "name": "owner",
      "outputs": [
        {
          "internalType": "address",
          "name": "",
          "type": "address"
        }
      ],
      "stateMutability": "view",
      "type": "function",
      "constant": true
    },
    {
      "inputs": [],
      "name": "pancakeSwap",
      "outputs": [
        {
          "internalType": "contract IUniswapV2Router02",
          "name": "",
          "type": "address"
        }
      ],
      "stateMutability": "view",
      "type": "function",
      "constant": true
    },
    {
      "inputs": [],
      "name": "renounceOwnership",
      "outputs": [],
      "stateMutability": "nonpayable",
      "type": "function"
    },
    {
      "inputs": [
        {
          "internalType": "address",
          "name": "",
          "type": "address"
        }
      ],
      "name": "rewardBalance",
      "outputs": [
        {
          "internalType": "uint256",
          "name": "",
          "type": "uint256"
        }
      ],
      "stateMutability": "view",
      "type": "function",
      "constant": true
    },
    {
      "inputs": [
        {
          "internalType": "address",
          "name": "",
          "type": "address"
        }
      ],
      "name": "stakedTime",
      "outputs": [
        {
          "internalType": "uint256",
          "name": "",
          "type": "uint256"
        }
      ],
      "stateMutability": "view",
      "type": "function",
      "constant": true
    },
    {
      "inputs": [
        {
          "internalType": "address",
          "name": "",
          "type": "address"
        }
      ],
      "name": "stakingBalance",
      "outputs": [
        {
          "internalType": "uint256",
          "name": "",
          "type": "uint256"
        }
      ],
      "stateMutability": "view",
      "type": "function",
      "constant": true
    },
    {
      "inputs": [
        {
          "internalType": "address",
          "name": "",
          "type": "address"
        }
      ],
      "name": "startTime",
      "outputs": [
        {
          "internalType": "uint256",
          "name": "",
          "type": "uint256"
        }
      ],
      "stateMutability": "view",
      "type": "function",
      "constant": true
    },
    {
      "inputs": [],
      "name": "totalLocked",
      "outputs": [
        {
          "internalType": "uint256",
          "name": "",
          "type": "uint256"
        }
      ],
      "stateMutability": "view",
      "type": "function",
      "constant": true
    },
    {
      "inputs": [
        {
          "internalType": "address",
          "name": "newOwner",
          "type": "address"
        }
      ],
      "name": "transferOwnership",
      "outputs": [],
      "stateMutability": "nonpayable",
      "type": "function"
    },
    {
      "inputs": [],
      "name": "unclaimedRewards",
      "outputs": [
        {
          "internalType": "uint256",
          "name": "",
          "type": "uint256"
        }
      ],
      "stateMutability": "view",
      "type": "function",
      "constant": true
    },
    {
      "stateMutability": "payable",
      "type": "receive",
      "payable": true
    },
    {
      "inputs": [],
      "name": "farmBalance",
      "outputs": [
        {
          "internalType": "uint256",
          "name": "",
          "type": "uint256"
        }
      ],
      "stateMutability": "view",
      "type": "function",
      "constant": true
    },
    {
      "inputs": [
        {
          "internalType": "bool",
          "name": "active",
          "type": "bool"
        }
      ],
      "name": "setActiveStatus",
      "outputs": [
        {
          "internalType": "bool",
          "name": "",
          "type": "bool"
        }
      ],
      "stateMutability": "nonpayable",
      "type": "function"
    },
    {
      "inputs": [
        {
          "internalType": "uint256",
          "name": "amount",
          "type": "uint256"
        }
      ],
      "name": "stake",
      "outputs": [],
      "stateMutability": "nonpayable",
      "type": "function"
    },
    {
      "inputs": [
        {
          "internalType": "uint256",
          "name": "amount",
          "type": "uint256"
        }
      ],
      "name": "unstake",
      "outputs": [],
      "stateMutability": "nonpayable",
      "type": "function"
    },
    {
      "inputs": [],
      "name": "withdrawYield",
      "outputs": [],
      "stateMutability": "nonpayable",
      "type": "function"
    }
  ],
  "bytecode": "0x60c0604052601260808190527104352454f5f4641524d3a204352454f2d4c560741b60a090815262000035916006919062000108565b503480156200004357600080fd5b5060405162001f6138038062001f61833981810160405260408110156200006957600080fd5b5080516020909101516000620000876001600160e01b036200010316565b600080546001600160a01b0319166001600160a01b0383169081178255604051929350917f8be0079c531659141344cd1fd0a4f28419497f9722a3daafe3b4186f6b6457e0908290a350600c80546001600160a01b039384166001600160a01b031991821617909155600d8054929093169116179055620001aa565b335b90565b828054600181600116156101000203166002900490600052602060002090601f016020900481019282601f106200014b57805160ff19168380011785556200017b565b828001600101855582156200017b579182015b828111156200017b5782518255916020019190600101906200015e565b50620001899291506200018d565b5090565b6200010591905b8082111562000189576000815560010162000194565b611da780620001ba6000396000f3fe60806040526004361061012e5760003560e01c80636f49712b116100ab578063bd30558e1161006f578063bd30558e14610424578063e507a8a414610439578063ec7404b11461044e578063f2fde38b1461047a578063f85f91b4146104ad578063fcf4cef2146104c25761016b565b80636f49712b14610388578063715018a6146103bb5780638da5cb5b146103d0578063a694fc3a146103e5578063b23a06121461040f5761016b565b8063375ba378116100f2578063375ba378146102a957806345bc78ab146102da578063568914121461030d57806367b40cf7146103225780636e1dc66e146103555761016b565b8063067095551461017057806306fdde03146101b557806322e9c08d1461023f5780632e17de781461025457806337180810146102805761016b565b3661016b5760408051348152905132917fb41b41537c423e7cbf9a976b27a65e952187f76137657af6ed6464590067be44919081900360200190a2005b600080fd5b34801561017c57600080fd5b506101a36004803603602081101561019357600080fd5b50356001600160a01b03166104d7565b60408051918252519081900360200190f35b3480156101c157600080fd5b506101ca6104e9565b6040805160208082528351818301528351919283929083019185019080838360005b838110156102045781810151838201526020016101ec565b50505050905090810190601f1680156102315780820380516001836020036101000a031916815260200191505b509250505060405180910390f35b34801561024b57600080fd5b506101a3610577565b34801561026057600080fd5b5061027e6004803603602081101561027757600080fd5b503561057d565b005b34801561028c57600080fd5b50610295610857565b604080519115158252519081900360200190f35b3480156102b557600080fd5b506102be610860565b604080516001600160a01b039092168252519081900360200190f35b3480156102e657600080fd5b506101a3600480360360208110156102fd57600080fd5b50356001600160a01b031661086f565b34801561031957600080fd5b506101a3610881565b34801561032e57600080fd5b506101a36004803603602081101561034557600080fd5b50356001600160a01b0316610887565b34801561036157600080fd5b506101a36004803603602081101561037857600080fd5b50356001600160a01b0316610899565b34801561039457600080fd5b50610295600480360360208110156103ab57600080fd5b50356001600160a01b03166108ab565b3480156103c757600080fd5b5061027e6108c0565b3480156103dc57600080fd5b506102be610974565b3480156103f157600080fd5b5061027e6004803603602081101561040857600080fd5b5035610983565b34801561041b57600080fd5b506101a3610c7e565b34801561043057600080fd5b506101a3610d59565b34801561044557600080fd5b5061027e610d5f565b34801561045a57600080fd5b506102956004803603602081101561047157600080fd5b50351515610d71565b34801561048657600080fd5b5061027e6004803603602081101561049d57600080fd5b50356001600160a01b0316610df4565b3480156104b957600080fd5b506101a3610e6a565b3480156104ce57600080fd5b506102be610e70565b60056020526000908152604090205481565b6006805460408051602060026001851615610100026000190190941693909304601f8101849004840282018401909252818152929183018282801561056f5780601f106105445761010080835404028352916020019161056f565b820191906000526020600020905b81548152906001019060200180831161055257829003601f168201915b505050505081565b600b5481565b806001600061058a610e7f565b6001600160a01b03166001600160a01b03168152602001908152602001600020541015600260006105b9610e7f565b6001600160a01b031681526020810191909152604001600020805460ff19168215151790556106195760405162461bcd60e51b8152600401808060200182810382526026815260200180611cfe6026913960400191505060405180910390fd5b600061062b610626610e7f565b610e83565b9050426003600061063a610e7f565b6001600160a01b031681526020810191909152604001600090812091909155918261066c82606463ffffffff610f3116565b90506000610680838363ffffffff610f9a16565b90506106b88360016000610692610e7f565b6001600160a01b031681526020810191909152604001600020549063ffffffff610f9a16565b600160006106c4610e7f565b6001600160a01b031681526020810191909152604001600020556107026106e9610e7f565b600c546001600160a01b0316908363ffffffff610ff716565b600854610715908463ffffffff610f9a16565b60085561074e8460046000610728610e7f565b6001600160a01b031681526020810191909152604001600020549063ffffffff61104e16565b6004600061075a610e7f565b6001600160a01b03168152602081019190915260400160002055600a54610787908563ffffffff61104e16565b600a5560016000610796610e7f565b6001600160a01b031681526020810191909152604001600020546107eb576000600260006107c2610e7f565b6001600160a01b031681526020810191909152604001600020805460ff19169115159190911790555b6008546107fc576000600955610808565b6108046110af565b6009555b610810610e7f565b6001600160a01b03167f85082129d87b2fe11527cb1b3b7a520aeb5aa6913f88a3d8757fe40d1db02fdd846040518082815260200191505060405180910390a25050505050565b60075460ff1681565b600d546001600160a01b031681565b60016020526000908152604090205481565b60085481565b60046020526000908152604090205481565b60036020526000908152604090205481565b60026020526000908152604090205460ff1681565b6108c8610e7f565b6000546001600160a01b0390811691161461092a576040805162461bcd60e51b815260206004820181905260248201527f4f776e61626c653a2063616c6c6572206973206e6f7420746865206f776e6572604482015290519081900360640190fd5b600080546040516001600160a01b03909116907f8be0079c531659141344cd1fd0a4f28419497f9722a3daafe3b4186f6b6457e0908390a3600080546001600160a01b0319169055565b6000546001600160a01b031690565b60075460ff1615156001146109df576040805162461bcd60e51b815260206004820152601960248201527f4372656f4661726d3a20506f6f6c206e6f742061637469766500000000000000604482015290519081900360640190fd5b60058110158015610a7b5750600c5481906001600160a01b03166370a08231610a06610e7f565b6040518263ffffffff1660e01b815260040180826001600160a01b03166001600160a01b0316815260200191505060206040518083038186803b158015610a4c57600080fd5b505afa158015610a60573d6000803e3d6000fd5b505050506040513d6020811015610a7657600080fd5b505110155b610ab65760405162461bcd60e51b815260040180806020018281038252602d815260200180611d45602d913960400191505060405180910390fd5b60026000610ac2610e7f565b6001600160a01b0316815260208101919091526040016000205460ff16151560011415610b46576000610af6610626610e7f565b9050610b088160046000610728610e7f565b60046000610b14610e7f565b6001600160a01b03168152602081019190915260400160002055600a54610b41908263ffffffff61104e16565b600a55505b610b6b610b51610e7f565b600c546001600160a01b031690308463ffffffff6110e416565b600854610b7e908263ffffffff61104e16565b600855610b918160016000610728610e7f565b60016000610b9d610e7f565b6001600160a01b03166001600160a01b03168152602001908152602001600020819055504260036000610bce610e7f565b6001600160a01b03166001600160a01b0316815260200190815260200160002081905550600160026000610c00610e7f565b6001600160a01b031681526020810191909152604001600020805460ff1916911515919091179055610c306110af565b600955610c3b610e7f565b6001600160a01b03167febedb8b3c678666e7f36970bc8f57abf6d8fa2e828c0da91ea5b75bf68ed101a826040518082815260200191505060405180910390a250565b600080610c976064600854610f3190919063ffffffff16565b90506000610cc282610cb6600a5460085461104e90919063ffffffff16565b9063ffffffff610f9a16565b600c54604080516370a0823160e01b81523060048201529051929350600092610d519285926001600160a01b03909116916370a0823191602480820192602092909190829003018186803b158015610d1957600080fd5b505afa158015610d2d573d6000803e3d6000fd5b505050506040513d6020811015610d4357600080fd5b50519063ffffffff610f9a16565b935050505090565b60095481565b610d6f610d6a610e7f565b611144565b565b6000610d7b610e7f565b6000546001600160a01b03908116911614610ddd576040805162461bcd60e51b815260206004820181905260248201527f4f776e61626c653a2063616c6c6572206973206e6f7420746865206f776e6572604482015290519081900360640190fd5b506007805460ff1916911515919091179055600190565b610dfc610e7f565b6000546001600160a01b03908116911614610e5e576040805162461bcd60e51b815260206004820181905260248201527f4f776e61626c653a2063616c6c6572206973206e6f7420746865206f776e6572604482015290519081900360640190fd5b610e67816117e2565b50565b600a5481565b600c546001600160a01b031681565b3390565b600080610e8f83611882565b905060786000610ea5838363ffffffff610f3116565b90506000610eb16110af565b90506000610ed86064610ecc8461016c63ffffffff610f3116565b9063ffffffff610f3116565b6001600160a01b03881660009081526001602052604081205491925090610f2590670de0b6b3a764000090610ecc908790610f19908763ffffffff61196016565b9063ffffffff61196016565b98975050505050505050565b6000808211610f87576040805162461bcd60e51b815260206004820152601a60248201527f536166654d6174683a206469766973696f6e206279207a65726f000000000000604482015290519081900360640190fd5b818381610f9057fe5b0490505b92915050565b600082821115610ff1576040805162461bcd60e51b815260206004820152601e60248201527f536166654d6174683a207375627472616374696f6e206f766572666c6f770000604482015290519081900360640190fd5b50900390565b604080516001600160a01b038416602482015260448082018490528251808303909101815260649091019091526020810180516001600160e01b031663a9059cbb60e01b1790526110499084906119b9565b505050565b6000828201838110156110a8576040805162461bcd60e51b815260206004820152601b60248201527f536166654d6174683a206164646974696f6e206f766572666c6f770000000000604482015290519081900360640190fd5b9392505050565b6000806110ba610c7e565b6008549091506000610d51610a28610f1984610ecc87670de0b6b3a764000063ffffffff61196016565b604080516001600160a01b0380861660248301528416604482015260648082018490528251808303909101815260849091019091526020810180516001600160e01b03166323b872dd60e01b17905261113e9085906119b9565b50505050565b6001600160a01b03811660009081526004602052604081208054919055600a54611174908263ffffffff610f9a16565b600a558015158061119c57506001600160a01b03821660009081526001602052604090205415155b6111ed576040805162461bcd60e51b815260206004820181905260248201527f4372656f4661726d3a204e6f207265776172647320746f207769746864726177604482015290519081900360640190fd5b6001600160a01b0382166000908152600160205260409020541561124757600061121683610e83565b9050611228828263ffffffff61104e16565b6001600160a01b03841660009081526003602052604090204290559150505b600061125a82600263ffffffff610f3116565b600c54600d546040805163095ea7b360e01b81526001600160a01b03928316600482015260248101879052905193945091169163095ea7b3916044808201926020929091908290030181600087803b1580156112b557600080fd5b505af11580156112c9573d6000803e3d6000fd5b505050506040513d60208110156112df57600080fd5b5051611324576040805162461bcd60e51b815260206004820152600f60248201526e30b8383937bb32903330b4b632b21760891b604482015290519081900360640190fd5b600061133783600263ffffffff610f3116565b6040805160028082526060808301845293945090916020830190803683375050600c5482519293506001600160a01b03169183915060009061137557fe5b6001600160a01b03928316602091820292909201810191909152600d54604080516315ab88c960e31b81529051919093169263ad5c4648926004808301939192829003018186803b1580156113c957600080fd5b505afa1580156113dd573d6000803e3d6000fd5b505050506040513d60208110156113f357600080fd5b505181518290600190811061140457fe5b6001600160a01b03928316602091820292909201810191909152600d546040805163d06ca61f60e01b81526004810188815260248201928352865160448301528651600096949094169463d06ca61f948a948994909260649091019185820191028083838c5b8381101561148257818101518382015260200161146a565b50505050905001935050505060006040518083038186803b1580156114a657600080fd5b505afa1580156114ba573d6000803e3d6000fd5b505050506040513d6000823e601f3d908101601f1916820160405260208110156114e357600080fd5b810190808051604051939291908464010000000082111561150357600080fd5b90830190602082018581111561151857600080fd5b825186602082028301116401000000008211171561153557600080fd5b82525081516020918201928201910280838360005b8381101561156257818101518382015260200161154a565b5050505090500160405250505060018151811061157b57fe5b6020026020010151905060006115b06115a36064610ecc60038661196090919063ffffffff16565b839063ffffffff610f9a16565b600d5460405163791ac94760e01b81526004810188815260248201849052306064830181905261038442016084840181905260a060448501908152895160a486015289519697506001600160a01b039095169563791ac947958c9589958c95949390929160c401906020808801910280838360005b8381101561163d578181015183820152602001611625565b505050509050019650505050505050600060405180830381600087803b15801561166657600080fd5b505af115801561167a573d6000803e3d6000fd5b5050600d54600c544793506001600160a01b03918216925063f305d71991849116886116c26116b56064610ecc84603263ffffffff61196016565b8b9063ffffffff610f9a16565b6116e86116db6064610ecc8a603263ffffffff61196016565b889063ffffffff610f9a16565b604080516001600160e01b031960e089901b1681526001600160a01b039586166004820152602481019490945260448401929092526064830152918d166084820152610384420160a4820152905160c480830192606092919082900301818588803b15801561175657600080fd5b505af115801561176a573d6000803e3d6000fd5b50505050506040513d606081101561178157600080fd5b5050600b54611796908863ffffffff61104e16565b600b556040805188815290516001600160a01b038a16917f92044e3943309ee5950e21bc7421d02c1df75f0df33c0d97c1143687b49a4c57919081900360200190a25050505050505050565b6001600160a01b0381166118275760405162461bcd60e51b8152600401808060200182810382526026815260200180611cb26026913960400191505060405180910390fd5b600080546040516001600160a01b03808516939216917f8be0079c531659141344cd1fd0a4f28419497f9722a3daafe3b4186f6b6457e091a3600080546001600160a01b0319166001600160a01b0392909216919091179055565b6001600160a01b03811660009081526003602052604081205461069090429083906118b490839063ffffffff610f9a16565b6001600160a01b038616600090815260056020526040812054919250906118e290839063ffffffff61104e16565b9050838111156119145760006118fe828663ffffffff610f9a16565b9050611910838263ffffffff610f9a16565b9250505b6001600160a01b03861660009081526005602052604090205461193d908363ffffffff61104e16565b6001600160a01b0387166000908152600560205260409020555092505050919050565b60008261196f57506000610f94565b8282028284828161197c57fe5b04146110a85760405162461bcd60e51b8152600401808060200182810382526021815260200180611d246021913960400191505060405180910390fd5b6060611a0e826040518060400160405280602081526020017f5361666542455032303a206c6f772d6c6576656c2063616c6c206661696c6564815250856001600160a01b0316611a6a9092919063ffffffff16565b80519091501561104957808060200190516020811015611a2d57600080fd5b50516110495760405162461bcd60e51b815260040180806020018281038252602a815260200180611c88602a913960400191505060405180910390fd5b6060611a798484600085611a81565b949350505050565b606082471015611ac25760405162461bcd60e51b8152600401808060200182810382526026815260200180611cd86026913960400191505060405180910390fd5b611acb85611bdd565b611b1c576040805162461bcd60e51b815260206004820152601d60248201527f416464726573733a2063616c6c20746f206e6f6e2d636f6e7472616374000000604482015290519081900360640190fd5b60006060866001600160a01b031685876040518082805190602001908083835b60208310611b5b5780518252601f199092019160209182019101611b3c565b6001836020036101000a03801982511681845116808217855250505050505090500191505060006040518083038185875af1925050503d8060008114611bbd576040519150601f19603f3d011682016040523d82523d6000602084013e611bc2565b606091505b5091509150611bd2828286611be3565b979650505050505050565b3b151590565b60608315611bf25750816110a8565b825115611c025782518084602001fd5b8160405162461bcd60e51b81526004018080602001828103825283818151815260200191508051906020019080838360005b83811015611c4c578181015183820152602001611c34565b50505050905090810190601f168015611c795780820380516001836020036101000a031916815260200191505b509250505060405180910390fdfe5361666542455032303a204245503230206f7065726174696f6e20646964206e6f7420737563636565644f776e61626c653a206e6577206f776e657220697320746865207a65726f2061646472657373416464726573733a20696e73756666696369656e742062616c616e636520666f722063616c6c4372656f4661726d3a20496e73756666696369656e74207374616b696e672062616c616e6365536166654d6174683a206d756c7469706c69636174696f6e206f766572666c6f774372656f4661726d3a20596f752063616e6e6f74207374616b65206c657373207468616e203520746f6b656e73a2646970667358221220b73dd9ccd431ceba5c35b142b41568d30fda3312d75527370ca6b3a62ce0487d64736f6c63430006050033",
  "immutableReferences": {},
  "source": "pragma solidity 0.6.5;\n\n/**\n * @dev Wrappers over Solidity's arithmetic operations with added overflow\n * checks.\n *\n * Arithmetic operations in Solidity wrap on overflow. This can easily result\n * in bugs, because programmers usually assume that an overflow raises an\n * error, which is the standard behavior in high level programming languages.\n * `SafeMath` restores this intuition by reverting the transaction when an\n * operation overflows.\n *\n * Using this library instead of the unchecked operations eliminates an entire\n * class of bugs, so it's recommended to use it always.\n */\nlibrary SafeMath {\n    /**\n     * @dev Returns the addition of two unsigned integers, with an overflow flag.\n     *\n     * _Available since v3.4._\n     */\n    function tryAdd(uint256 a, uint256 b) internal pure returns (bool, uint256) {\n        uint256 c = a + b;\n        if (c < a) return (false, 0);\n        return (true, c);\n    }\n\n    /**\n     * @dev Returns the substraction of two unsigned integers, with an overflow flag.\n     *\n     * _Available since v3.4._\n     */\n    function trySub(uint256 a, uint256 b) internal pure returns (bool, uint256) {\n        if (b > a) return (false, 0);\n        return (true, a - b);\n    }\n\n    /**\n     * @dev Returns the multiplication of two unsigned integers, with an overflow flag.\n     *\n     * _Available since v3.4._\n     */\n    function tryMul(uint256 a, uint256 b) internal pure returns (bool, uint256) {\n        // Gas optimization: this is cheaper than requiring 'a' not being zero, but the\n        // benefit is lost if 'b' is also tested.\n        // See: https://github.com/OpenZeppelin/openzeppelin-contracts/pull/522\n        if (a == 0) return (true, 0);\n        uint256 c = a * b;\n        if (c / a != b) return (false, 0);\n        return (true, c);\n    }\n\n    /**\n     * @dev Returns the division of two unsigned integers, with a division by zero flag.\n     *\n     * _Available since v3.4._\n     */\n    function tryDiv(uint256 a, uint256 b) internal pure returns (bool, uint256) {\n        if (b == 0) return (false, 0);\n        return (true, a / b);\n    }\n\n    /**\n     * @dev Returns the remainder of dividing two unsigned integers, with a division by zero flag.\n     *\n     * _Available since v3.4._\n     */\n    function tryMod(uint256 a, uint256 b) internal pure returns (bool, uint256) {\n        if (b == 0) return (false, 0);\n        return (true, a % b);\n    }\n\n    /**\n     * @dev Returns the addition of two unsigned integers, reverting on\n     * overflow.\n     *\n     * Counterpart to Solidity's `+` operator.\n     *\n     * Requirements:\n     *\n     * - Addition cannot overflow.\n     */\n    function add(uint256 a, uint256 b) internal pure returns (uint256) {\n        uint256 c = a + b;\n        require(c >= a, \"SafeMath: addition overflow\");\n        return c;\n    }\n\n    /**\n     * @dev Returns the subtraction of two unsigned integers, reverting on\n     * overflow (when the result is negative).\n     *\n     * Counterpart to Solidity's `-` operator.\n     *\n     * Requirements:\n     *\n     * - Subtraction cannot overflow.\n     */\n    function sub(uint256 a, uint256 b) internal pure returns (uint256) {\n        require(b <= a, \"SafeMath: subtraction overflow\");\n        return a - b;\n    }\n\n    /**\n     * @dev Returns the multiplication of two unsigned integers, reverting on\n     * overflow.\n     *\n     * Counterpart to Solidity's `*` operator.\n     *\n     * Requirements:\n     *\n     * - Multiplication cannot overflow.\n     */\n    function mul(uint256 a, uint256 b) internal pure returns (uint256) {\n        if (a == 0) return 0;\n        uint256 c = a * b;\n        require(c / a == b, \"SafeMath: multiplication overflow\");\n        return c;\n    }\n\n    /**\n     * @dev Returns the integer division of two unsigned integers, reverting on\n     * division by zero. The result is rounded towards zero.\n     *\n     * Counterpart to Solidity's `/` operator. Note: this function uses a\n     * `revert` opcode (which leaves remaining gas untouched) while Solidity\n     * uses an invalid opcode to revert (consuming all remaining gas).\n     *\n     * Requirements:\n     *\n     * - The divisor cannot be zero.\n     */\n    function div(uint256 a, uint256 b) internal pure returns (uint256) {\n        require(b > 0, \"SafeMath: division by zero\");\n        return a / b;\n    }\n\n    /**\n     * @dev Returns the remainder of dividing two unsigned integers. (unsigned integer modulo),\n     * reverting when dividing by zero.\n     *\n     * Counterpart to Solidity's `%` operator. This function uses a `revert`\n     * opcode (which leaves remaining gas untouched) while Solidity uses an\n     * invalid opcode to revert (consuming all remaining gas).\n     *\n     * Requirements:\n     *\n     * - The divisor cannot be zero.\n     */\n    function mod(uint256 a, uint256 b) internal pure returns (uint256) {\n        require(b > 0, \"SafeMath: modulo by zero\");\n        return a % b;\n    }\n\n    /**\n     * @dev Returns the subtraction of two unsigned integers, reverting with custom message on\n     * overflow (when the result is negative).\n     *\n     * CAUTION: This function is deprecated because it requires allocating memory for the error\n     * message unnecessarily. For custom revert reasons use {trySub}.\n     *\n     * Counterpart to Solidity's `-` operator.\n     *\n     * Requirements:\n     *\n     * - Subtraction cannot overflow.\n     */\n    function sub(uint256 a, uint256 b, string memory errorMessage) internal pure returns (uint256) {\n        require(b <= a, errorMessage);\n        return a - b;\n    }\n\n    /**\n     * @dev Returns the integer division of two unsigned integers, reverting with custom message on\n     * division by zero. The result is rounded towards zero.\n     *\n     * CAUTION: This function is deprecated because it requires allocating memory for the error\n     * message unnecessarily. For custom revert reasons use {tryDiv}.\n     *\n     * Counterpart to Solidity's `/` operator. Note: this function uses a\n     * `revert` opcode (which leaves remaining gas untouched) while Solidity\n     * uses an invalid opcode to revert (consuming all remaining gas).\n     *\n     * Requirements:\n     *\n     * - The divisor cannot be zero.\n     */\n    function div(uint256 a, uint256 b, string memory errorMessage) internal pure returns (uint256) {\n        require(b > 0, errorMessage);\n        return a / b;\n    }\n\n    /**\n     * @dev Returns the remainder of dividing two unsigned integers. (unsigned integer modulo),\n     * reverting with custom message when dividing by zero.\n     *\n     * CAUTION: This function is deprecated because it requires allocating memory for the error\n     * message unnecessarily. For custom revert reasons use {tryMod}.\n     *\n     * Counterpart to Solidity's `%` operator. This function uses a `revert`\n     * opcode (which leaves remaining gas untouched) while Solidity uses an\n     * invalid opcode to revert (consuming all remaining gas).\n     *\n     * Requirements:\n     *\n     * - The divisor cannot be zero.\n     */\n    function mod(uint256 a, uint256 b, string memory errorMessage) internal pure returns (uint256) {\n        require(b > 0, errorMessage);\n        return a % b;\n    }\n}\n\n/**\n * @dev Collection of functions related to the address type\n */\nlibrary Address {\n    /**\n     * @dev Returns true if `account` is a contract.\n     *\n     * [IMPORTANT]\n     * ====\n     * It is unsafe to assume that an address for which this function returns\n     * false is an externally-owned account (EOA) and not a contract.\n     *\n     * Among others, `isContract` will return false for the following\n     * types of addresses:\n     *\n     *  - an externally-owned account\n     *  - a contract in construction\n     *  - an address where a contract will be created\n     *  - an address where a contract lived, but was destroyed\n     * ====\n     */\n    function isContract(address account) internal view returns (bool) {\n        // This method relies on extcodesize, which returns 0 for contracts in\n        // construction, since the code is only stored at the end of the\n        // constructor execution.\n\n        uint256 size;\n        // solhint-disable-next-line no-inline-assembly\n        assembly { size := extcodesize(account) }\n        return size > 0;\n    }\n\n    /**\n     * @dev Replacement for Solidity's `transfer`: sends `amount` wei to\n     * `recipient`, forwarding all available gas and reverting on errors.\n     *\n     * https://eips.ethereum.org/EIPS/eip-1884[EIP1884] increases the gas cost\n     * of certain opcodes, possibly making contracts go over the 2300 gas limit\n     * imposed by `transfer`, making them unable to receive funds via\n     * `transfer`. {sendValue} removes this limitation.\n     *\n     * https://diligence.consensys.net/posts/2019/09/stop-using-soliditys-transfer-now/[Learn more].\n     *\n     * IMPORTANT: because control is transferred to `recipient`, care must be\n     * taken to not create reentrancy vulnerabilities. Consider using\n     * {ReentrancyGuard} or the\n     * https://solidity.readthedocs.io/en/v0.5.11/security-considerations.html#use-the-checks-effects-interactions-pattern[checks-effects-interactions pattern].\n     */\n    function sendValue(address payable recipient, uint256 amount) internal {\n        require(address(this).balance >= amount, \"Address: insufficient balance\");\n\n        // solhint-disable-next-line avoid-low-level-calls, avoid-call-value\n        (bool success, ) = recipient.call{ value: amount }(\"\");\n        require(success, \"Address: unable to send value, recipient may have reverted\");\n    }\n\n    /**\n     * @dev Performs a Solidity function call using a low level `call`. A\n     * plain`call` is an unsafe replacement for a function call: use this\n     * function instead.\n     *\n     * If `target` reverts with a revert reason, it is bubbled up by this\n     * function (like regular Solidity function calls).\n     *\n     * Returns the raw returned data. To convert to the expected return value,\n     * use https://solidity.readthedocs.io/en/latest/units-and-global-variables.html?highlight=abi.decode#abi-encoding-and-decoding-functions[`abi.decode`].\n     *\n     * Requirements:\n     *\n     * - `target` must be a contract.\n     * - calling `target` with `data` must not revert.\n     *\n     * _Available since v3.1._\n     */\n    function functionCall(address target, bytes memory data) internal returns (bytes memory) {\n      return functionCall(target, data, \"Address: low-level call failed\");\n    }\n\n    /**\n     * @dev Same as {xref-Address-functionCall-address-bytes-}[`functionCall`], but with\n     * `errorMessage` as a fallback revert reason when `target` reverts.\n     *\n     * _Available since v3.1._\n     */\n    function functionCall(address target, bytes memory data, string memory errorMessage) internal returns (bytes memory) {\n        return functionCallWithValue(target, data, 0, errorMessage);\n    }\n\n    /**\n     * @dev Same as {xref-Address-functionCall-address-bytes-}[`functionCall`],\n     * but also transferring `value` wei to `target`.\n     *\n     * Requirements:\n     *\n     * - the calling contract must have an ETH balance of at least `value`.\n     * - the called Solidity function must be `payable`.\n     *\n     * _Available since v3.1._\n     */\n    function functionCallWithValue(address target, bytes memory data, uint256 value) internal returns (bytes memory) {\n        return functionCallWithValue(target, data, value, \"Address: low-level call with value failed\");\n    }\n\n    /**\n     * @dev Same as {xref-Address-functionCallWithValue-address-bytes-uint256-}[`functionCallWithValue`], but\n     * with `errorMessage` as a fallback revert reason when `target` reverts.\n     *\n     * _Available since v3.1._\n     */\n    function functionCallWithValue(address target, bytes memory data, uint256 value, string memory errorMessage) internal returns (bytes memory) {\n        require(address(this).balance >= value, \"Address: insufficient balance for call\");\n        require(isContract(target), \"Address: call to non-contract\");\n\n        // solhint-disable-next-line avoid-low-level-calls\n        (bool success, bytes memory returndata) = target.call{ value: value }(data);\n        return _verifyCallResult(success, returndata, errorMessage);\n    }\n\n    /**\n     * @dev Same as {xref-Address-functionCall-address-bytes-}[`functionCall`],\n     * but performing a static call.\n     *\n     * _Available since v3.3._\n     */\n    function functionStaticCall(address target, bytes memory data) internal view returns (bytes memory) {\n        return functionStaticCall(target, data, \"Address: low-level static call failed\");\n    }\n\n    /**\n     * @dev Same as {xref-Address-functionCall-address-bytes-string-}[`functionCall`],\n     * but performing a static call.\n     *\n     * _Available since v3.3._\n     */\n    function functionStaticCall(address target, bytes memory data, string memory errorMessage) internal view returns (bytes memory) {\n        require(isContract(target), \"Address: static call to non-contract\");\n\n        // solhint-disable-next-line avoid-low-level-calls\n        (bool success, bytes memory returndata) = target.staticcall(data);\n        return _verifyCallResult(success, returndata, errorMessage);\n    }\n\n    /**\n     * @dev Same as {xref-Address-functionCall-address-bytes-}[`functionCall`],\n     * but performing a delegate call.\n     *\n     * _Available since v3.4._\n     */\n    function functionDelegateCall(address target, bytes memory data) internal returns (bytes memory) {\n        return functionDelegateCall(target, data, \"Address: low-level delegate call failed\");\n    }\n\n    /**\n     * @dev Same as {xref-Address-functionCall-address-bytes-string-}[`functionCall`],\n     * but performing a delegate call.\n     *\n     * _Available since v3.4._\n     */\n    function functionDelegateCall(address target, bytes memory data, string memory errorMessage) internal returns (bytes memory) {\n        require(isContract(target), \"Address: delegate call to non-contract\");\n\n        // solhint-disable-next-line avoid-low-level-calls\n        (bool success, bytes memory returndata) = target.delegatecall(data);\n        return _verifyCallResult(success, returndata, errorMessage);\n    }\n\n    function _verifyCallResult(bool success, bytes memory returndata, string memory errorMessage) private pure returns(bytes memory) {\n        if (success) {\n            return returndata;\n        } else {\n            // Look for revert reason and bubble it up if present\n            if (returndata.length > 0) {\n                // The easiest way to bubble the revert reason is using memory via assembly\n\n                // solhint-disable-next-line no-inline-assembly\n                assembly {\n                    let returndata_size := mload(returndata)\n                    revert(add(32, returndata), returndata_size)\n                }\n            } else {\n                revert(errorMessage);\n            }\n        }\n    }\n}\n/*\n * @dev Provides information about the current execution context, including the\n * sender of the transaction and its data. While these are generally available\n * via msg.sender and msg.data, they should not be accessed in such a direct\n * manner, since when dealing with GSN meta-transactions the account sending and\n * paying for execution may not be the actual sender (as far as an application\n * is concerned).\n *\n * This contract is only required for intermediate, library-like contracts.\n */\nabstract contract Context {\n    function _msgSender() internal view virtual returns (address payable) {\n        return msg.sender;\n    }\n\n    function _msgData() internal view virtual returns (bytes memory) {\n        this; // silence state mutability warning without generating bytecode - see https://github.com/ethereum/solidity/issues/2691\n        return msg.data;\n    }\n}\n\n/**\n * @dev Contract module which provides a basic access control mechanism, where\n * there is an account (an owner) that can be granted exclusive access to\n * specific functions.\n *\n * By default, the owner account will be the one that deploys the contract. This\n * can later be changed with {transferOwnership}.\n *\n * This module is used through inheritance. It will make available the modifier\n * `onlyOwner`, which can be applied to your functions to restrict their use to\n * the owner.\n */\ncontract Ownable is Context {\n    address private _owner;\n\n    event OwnershipTransferred(address indexed previousOwner, address indexed newOwner);\n\n    /**\n     * @dev Initializes the contract setting the deployer as the initial owner.\n     */\n    constructor() internal {\n        address msgSender = _msgSender();\n        _owner = msgSender;\n        emit OwnershipTransferred(address(0), msgSender);\n    }\n\n    /**\n     * @dev Returns the address of the current owner.\n     */\n    function owner() public view returns (address) {\n        return _owner;\n    }\n\n    /**\n     * @dev Throws if called by any account other than the owner.\n     */\n    modifier onlyOwner() {\n        require(_owner == _msgSender(), 'Ownable: caller is not the owner');\n        _;\n    }\n\n    /**\n     * @dev Leaves the contract without owner. It will not be possible to call\n     * `onlyOwner` functions anymore. Can only be called by the current owner.\n     *\n     * NOTE: Renouncing ownership will leave the contract without an owner,\n     * thereby removing any functionality that is only available to the owner.\n     */\n    function renounceOwnership() public onlyOwner {\n        emit OwnershipTransferred(_owner, address(0));\n        _owner = address(0);\n    }\n\n    /**\n     * @dev Transfers ownership of the contract to a new account (`newOwner`).\n     * Can only be called by the current owner.\n     */\n    function transferOwnership(address newOwner) public onlyOwner {\n        _transferOwnership(newOwner);\n        }\n\n    /**\n     * @dev Transfers ownership of the contract to a new account (`newOwner`).\n     */\n    function _transferOwnership(address newOwner) internal {\n        require(newOwner != address(0), 'Ownable: new owner is the zero address');\n        emit OwnershipTransferred(_owner, newOwner);\n        _owner = newOwner;\n    }\n}\n/**\n * @title SafeBEP20\n * @dev Wrappers around BEP20 operations that throw on failure (when the token\n * contract returns false). Tokens that return no value (and instead revert or\n * throw on failure) are also supported, non-reverting calls are assumed to be\n * successful.\n * To use this library you can add a `using SafeBEP20 for IBEP20;` statement to your contract,\n * which allows you to call the safe operations as `token.safeTransfer(...)`, etc.\n */\nlibrary SafeBEP20 {\n    using SafeMath for uint256;\n    using Address for address;\n\n    function safeTransfer(\n        IBEP20 token,\n        address to,\n        uint256 value\n    ) internal {\n        _callOptionalReturn(token, abi.encodeWithSelector(token.transfer.selector, to, value));\n    }\n\n    function safeTransferFrom(\n        IBEP20 token,\n        address from,\n        address to,\n        uint256 value\n    ) internal {\n        _callOptionalReturn(token, abi.encodeWithSelector(token.transferFrom.selector, from, to, value));\n    }\n\n    /**\n     * @dev Deprecated. This function has issues similar to the ones found in\n     * {IBEP20-approve}, and its usage is discouraged.\n     *\n     * Whenever possible, use {safeIncreaseAllowance} and\n     * {safeDecreaseAllowance} instead.\n     */\n    function safeApprove(\n        IBEP20 token,\n        address spender,\n        uint256 value\n    ) internal {\n        // safeApprove should only be called when setting an initial allowance,\n        // or when resetting it to zero. To increase and decrease it, use\n        // 'safeIncreaseAllowance' and 'safeDecreaseAllowance'\n        // solhint-disable-next-line max-line-length\n        require(\n            (value == 0) || (token.allowance(address(this), spender) == 0),\n            'SafeBEP20: approve from non-zero to non-zero allowance'\n        );\n        _callOptionalReturn(token, abi.encodeWithSelector(token.approve.selector, spender, value));\n    }\n\n    function safeIncreaseAllowance(\n        IBEP20 token,\n        address spender,\n        uint256 value\n    ) internal {\n        uint256 newAllowance = token.allowance(address(this), spender).add(value);\n        _callOptionalReturn(token, abi.encodeWithSelector(token.approve.selector, spender, newAllowance));\n    }\n\n    function safeDecreaseAllowance(\n        IBEP20 token,\n        address spender,\n        uint256 value\n    ) internal {\n        uint256 newAllowance = token.allowance(address(this), spender).sub(\n            value,\n            'SafeBEP20: decreased allowance below zero'\n        );\n        _callOptionalReturn(token, abi.encodeWithSelector(token.approve.selector, spender, newAllowance));\n    }\n\n    /**\n     * @dev Imitates a Solidity high-level call (i.e. a regular function call to a contract), relaxing the requirement\n     * on the return value: the return value is optional (but if data is returned, it must not be false).\n     * @param token The token targeted by the call.\n     * @param data The call data (encoded using abi.encode or one of its variants).\n     */\n    function _callOptionalReturn(IBEP20 token, bytes memory data) private {\n        // We need to perform a low level call here, to bypass Solidity's return data size checking mechanism, since\n        // we're implementing it ourselves. We use {Address.functionCall} to perform this call, which verifies that\n        // the target address contains contract code and also asserts for success in the low-level call.\n\n        bytes memory returndata = address(token).functionCall(data, 'SafeBEP20: low-level call failed');\n        if (returndata.length > 0) {\n            // Return data is optional\n            // solhint-disable-next-line max-line-length\n            require(abi.decode(returndata, (bool)), 'SafeBEP20: BEP20 operation did not succeed');\n        }\n    }\n}\n/**\n * @dev Interface of the BEP20 standard as defined in the EIP.\n */\ninterface IBEP20 {\n\n    /**\n     * @dev Returns the amount of tokens in existence.\n     */\n    function totalSupply() external view returns (uint256);\n\n    /**\n     * @dev Returns the token decimals.\n     */\n    function decimals() external view returns (uint8);\n\n    /**\n     * @dev Returns the token symbol.\n     */\n    function symbol() external view returns (string memory);\n\n    /**\n     * @dev Returns the token name.\n     */\n    function name() external view returns (string memory);\n\n    /**\n     * @dev Returns the amount of tokens owned by `account`.\n     */\n    function balanceOf(address account) external view returns (uint256);\n\n    /**\n     * @dev Moves `amount` tokens from the caller's account to `recipient`.\n     *\n     * Returns a boolean value indicating whether the operation succeeded.\n     *\n     * Emits a {Transfer} event.\n     */\n    function transfer(address recipient, uint256 amount) external returns (bool);\n\n    /**\n     * @dev Returns the remaining number of tokens that `spender` will be\n     * allowed to spend on behalf of `owner` through {transferFrom}. This is\n     * zero by default.\n     *\n     * This value changes when {approve} or {transferFrom} are called.\n     */\n    function allowance(address owner, address spender) external view returns (uint256);\n\n    /**\n     * @dev Sets `amount` as the allowance of `spender` over the caller's tokens.\n     *\n     * Returns a boolean value indicating whether the operation succeeded.\n     *\n     * IMPORTANT: Beware that changing an allowance with this method brings the risk\n     * that someone may use both the old and the new allowance by unfortunate\n     * transaction ordering. One possible solution to mitigate this race\n     * condition is to first reduce the spender's allowance to 0 and set the\n     * desired value afterwards:\n     * https://github.com/ethereum/EIPs/issues/20#issuecomment-263524729\n     *\n     * Emits an {Approval} event.\n     */\n    function approve(address spender, uint256 amount) external returns (bool);\n\n    /**\n     * @dev Moves `amount` tokens from `sender` to `recipient` using the\n     * allowance mechanism. `amount` is then deducted from the caller's\n     * allowance.\n     *\n     * Returns a boolean value indicating whether the operation succeeded.\n     *\n     * Emits a {Transfer} event.\n     */\n    function transferFrom(\n        address sender,\n        address recipient,\n        uint256 amount\n    ) external returns (bool);\n\n    /**\n     * @dev Emitted when `value` tokens are moved from one account (`from`) to\n     * another (`to`).\n     *\n     * Note that `value` may be zero.\n     */\n    event Transfer(address indexed from, address indexed to, uint256 value);\n\n    /**\n     * @dev Emitted when the allowance of a `spender` for an `owner` is set by\n     * a call to {approve}. `value` is the new allowance.\n     */\n    event Approval(address indexed owner, address indexed spender, uint256 value);\n}\n// Pancake interface for swap and add liquidity\ninterface IUniswapV2Router02{\n    function WETH() external pure returns (address);\n    function addLiquidityETH(\n        address token,\n        uint amountTokenDesired,\n        uint amountTokenMin,\n        uint amountETHMin,\n        address to,\n        uint deadline\n    ) external payable returns (uint amountToken, uint amountETH, uint liquidity);\n    function swapExactTokensForETHSupportingFeeOnTransferTokens(\n        uint amountIn,\n        uint amountOutMin,\n        address[] calldata path,\n        address to,\n        uint deadline\n    ) external;\n    function getAmountsOut(uint amountIn, address[] calldata path) external view returns (uint[] memory amounts);\n}\n\ncontract CreoLPFarm is Ownable {\n    using SafeMath for uint256;\n    using SafeBEP20 for IBEP20;\n\n    mapping(address => uint256) public stakingBalance;\n    mapping(address => bool) public isStaking;\n    mapping(address => uint256) public startTime;\n    mapping(address => uint256) public rewardBalance;\n    mapping (address=> uint256) public stakedTime;\n\n\n    string public name = \"CREO_FARM: CREO-LP\";\n    bool public farmActive;\n    uint256 public totalLocked;\n    uint256 public APR;\n    uint256 public unclaimedRewards;\n    uint256 public claimedRewards;\n    \n\n    IBEP20 public creoToken;\n    IUniswapV2Router02 public pancakeSwap;\n\n\n    event Stake(address indexed from, uint256 amount);\n    event Unstake(address indexed from, uint256 amount);\n    event YieldWithdraw(address indexed to, uint256 amount);\n    event SwapTokenForLP(address indexed user, uint256 amount);\n\n    constructor(\n        IBEP20 _creoToken,\n        IUniswapV2Router02 _swap\n        ) public {\n            creoToken = _creoToken;\n            pancakeSwap = _swap;\n        }\n    \n    receive() external payable {\n        emit SwapTokenForLP(tx.origin,msg.value);\n    }\n\n    function farmBalance() public view returns(uint256) {\n        uint256 creoFee = totalLocked.div(uint256(100));\n        uint256 deduct = totalLocked.add(unclaimedRewards).sub(creoFee);\n        uint256 bal = creoToken.balanceOf(address(this)).sub(deduct);\n        return bal;\n    }\n\n    function setActiveStatus(bool active) onlyOwner public virtual returns (bool) {\n        farmActive = active;\n        return true;\n    }\n\n    function stake(uint256 amount) public {\n        require(farmActive == true, 'CreoFarm: Pool not active');\n        require(\n            amount >= 5 &&\n            creoToken.balanceOf(_msgSender()) >= amount, \n            \"CreoFarm: You cannot stake less than 5 tokens\");\n\n        if(isStaking[_msgSender()] == true){\n            uint256 toTransfer = _calculateYieldTotal(_msgSender());\n            rewardBalance[_msgSender()] = rewardBalance[_msgSender()].add(toTransfer);\n            unclaimedRewards  = unclaimedRewards.add(toTransfer);   \n        }\n        creoToken.safeTransferFrom(_msgSender(), address(this), amount);\n        totalLocked = totalLocked.add(amount);\n        stakingBalance[_msgSender()] = stakingBalance[_msgSender()].add(amount);\n        startTime[_msgSender()] = now;\n        isStaking[_msgSender()] = true;\n        APR = _calculateApr();\n        emit Stake(_msgSender(), amount);\n    }\n\n    function unstake(uint256 amount) public {\n        require(\n            isStaking[_msgSender()] = true &&\n            stakingBalance[_msgSender()] >= amount, \n            \"CreoFarm: Insufficient staking balance\"\n        );\n\n        uint256 yieldTransfer = _calculateYieldTotal(_msgSender());\n        startTime[_msgSender()] = now;\n        uint256 balTransfer = amount;\n        // re-entrancy gaurd\n        amount = 0;\n        // deduct creo burn of 1% to prevent errors\n        uint256 burnValue = balTransfer.div(uint256(100));\n        uint256 toTransfer = balTransfer.sub(burnValue);   \n        stakingBalance[_msgSender()] = stakingBalance[_msgSender()].sub(balTransfer);\n        creoToken.safeTransfer(_msgSender(), toTransfer);\n        totalLocked = totalLocked.sub(balTransfer);\n        rewardBalance[_msgSender()] = rewardBalance[_msgSender()].add(yieldTransfer);\n        unclaimedRewards  = unclaimedRewards.add(yieldTransfer);\n        if(stakingBalance[_msgSender()] == 0){\n            isStaking[_msgSender()] = false;\n        }\n        if (totalLocked == 0){\n            APR = 0;\n        } else {\n            APR = _calculateApr();\n        }\n        \n        emit Unstake(_msgSender(), balTransfer);\n    }\n\n    function _calculateApr() private view returns(uint256){\n        uint256 bal = farmBalance();\n        uint locked = totalLocked;\n        uint256 _apr = bal.mul(10**18).div(locked).mul(2600);\n        return _apr;\n    }\n\n    function _calculateYieldTime(address user) private  returns(uint256){\n        // max time in seconds\n        uint256 maxTime = 1680;\n        uint256 end = now;\n        uint256 totalTime = end.sub(startTime[user]);\n        uint256 allTime = totalTime.add(stakedTime[user]);\n        if (allTime > maxTime){\n            uint256 excess = allTime.sub(maxTime);\n            totalTime = totalTime.sub(excess);\n        }\n        stakedTime[user] = stakedTime[user].add(totalTime);\n        return totalTime;\n    }\n\n    function _calculateYieldTotal(address user) private returns(uint256) {\n        uint256 time = _calculateYieldTime(user);\n        // reward is calculated daily!\n        uint256 rate = 120;\n        uint256 daysStaked = time.div(rate);\n        uint256 apr = _calculateApr();    \n        uint256 dailyInterest = apr.div(364).div(100); \n        uint256 yield = stakingBalance[user].mul(dailyInterest).mul(daysStaked).div(10**18);\n        return yield;\n    } \n\n    function _swapRewardForLp(address user) private {\n        uint256 rewards = rewardBalance[user];\n        rewardBalance[user] = 0;\n        unclaimedRewards = unclaimedRewards.sub(rewards);\n        require(\n            rewards > 0 ||\n            stakingBalance[user] > 0,\n            \"CreoFarm: No rewards to withdraw\"\n            );\n        if(stakingBalance[user] != 0){\n            uint256 currYield = _calculateYieldTotal(user);\n            rewards = rewards.add(currYield);\n            startTime[user] = now;\n        }\n        \n        uint256 toSwap = rewards.div(2);\n        require(creoToken.approve(address(pancakeSwap), rewards), 'approve failed.');\n        uint256 liq = rewards.div(2);\n        address[] memory path = new address[](2);\n        path[0] = address(creoToken);\n        path[1] = pancakeSwap.WETH();\n        uint256 maxSwapVal = pancakeSwap.getAmountsOut(toSwap,path)[1];\n        uint256 minSwapOut = maxSwapVal.sub(maxSwapVal.mul(3).div(100));\n        pancakeSwap.swapExactTokensForETHSupportingFeeOnTransferTokens(toSwap,minSwapOut,path,address(this), now + 900);\n        uint256 liqETH = address(this).balance;\n        pancakeSwap.addLiquidityETH{ value:liqETH }(address(creoToken),liq,liq.sub(liq.mul(50).div(100)) ,liqETH.sub(liqETH.mul(50).div(100)),user,now + 900);\n        claimedRewards = claimedRewards.add(rewards);\n        emit YieldWithdraw(user, rewards);\n    }\n   \n    \n\n    function withdrawYield() public {\n        _swapRewardForLp(_msgSender());\n    } \n}",
  "sourcePath": "/Users/xx_lanre/Desktop/creo_projects/creo-farm-contracts/contracts/CreoFarm.sol",
  "compiler": {
    "name": "solc",
    "version": "0.6.5+commit.f956cc89.Emscripten.clang"
  },
  "schemaVersion": "3.4.3",
  "updatedAt": "2021-10-30T11:15:03.629Z",
  "networkType": "ethereum",
  "devdoc": {
    "methods": {
      "owner()": {
        "details": "Returns the address of the current owner."
      },
      "renounceOwnership()": {
        "details": "Leaves the contract without owner. It will not be possible to call `onlyOwner` functions anymore. Can only be called by the current owner.     * NOTE: Renouncing ownership will leave the contract without an owner, thereby removing any functionality that is only available to the owner."
      },
      "transferOwnership(address)": {
        "details": "Transfers ownership of the contract to a new account (`newOwner`). Can only be called by the current owner."
      }
    }
  },
  "userdoc": {
    "methods": {}
  }
}